:020000040000FA
:100000000A128A1110280134FE00030EF0000A08BB
:10001000F100831203137F08F2000A168A154D2F90
:100020000A128A1113288317AA30FD001A30FE0025
:10003000F030FF009E3084000A168A151F230A1232
:100040008A118313EE30FD001B30FE002E30FF00BE
:10005000DB3084000A168A151F230A128A110A123D
:100060008A1103200A128A11FA00A0308400DB30C2
:100070000A168A15AC220A128A115530840064309F
:100080000A168A15AC220A128A11F90183010A1292
:100090008A114A280A168A150C250A128A11831613
:1000A0000313650883160317940083160313660869
:1000B0008316031795008316031367088316031727
:1000C0009600970198019C019C0A9B019201930163
:1000D000943083120313AB000130AC000030AD004C
:1000E000AE000A168A15A6270A128A1101300A16CE
:1000F0008A1120220A128A1183120313D100510897
:10010000831603179D00B83090000B30910001302A
:1001100090020030031C91039102100A031D9428E1
:10012000110A031D9428952887280A168A15092381
:100130000A128A11730883120313D1007408D200C3
:10014000D301D4015408A3005308A2005208A1000F
:100150005108A00000300A168A1155260A128A1189
:10016000831203132308B5002208B4002108B3004A
:100170002008B2003D30B100C830B0000030AF0000
:100180000030AE000A128A1176240A128A118312F4
:1001900003133108CB003008CA002F08C9002E080D
:1001A000C8000A168A11A0240A128A1183120313A6
:1001B0004908831603179A0083120313480883160D
:1001C000031799003E301D06031DE728E8280A2979
:1001D0006E30F3009130F40094300A168A159224A0
:1001E0000A128A11943083120313AB000130AC0061
:1001F000831603171A0883120313AE00831603171E
:10020000190883120313AD000A168A15A6270A12CD
:100210008A11492C3D301D06031D0F291029512933
:100220001808803AFF0080307F02031D192905302D
:10023000170203181C291D295129013083160317A1
:1002400097070318980A00309807170883120313BA
:10025000D10051079E3E840083170008F300840AF2
:1002600000088403F40094300A168A1592240A12B6
:100270008A11943083120313AB000130AC00831653
:1002800003171A0883120313AE0083160317190805
:1002900083120313AD000A168A15A6270A128A11C3
:1002A000492C3B30831603171D06031D5829592975
:1002B00083291808803AFF0080307F02031D6229DD
:1002C00001301702031C652966298329FF30831634
:1002D000031797070318980AFF3098071708831227
:1002E0000313D10051079E3E840083170008F300DA
:1002F000840A00088403F40094300A168A159224B4
:100300000A128A1139293730831603171D06031D77
:100310008A298B29C9291C03031D8F299029C929E2
:10032000F30101300A168A15E0230A128A113930C6
:1003300083120313A0009030A1008030D100510837
:10034000A2000A168A156E250A128A11C03083127D
:100350000313D1005108A40020300A168A15552332
:100360000A128A11F3010F300A168A15E0230A12C5
:100370008A11831603179B019B0A02308312031311
:10038000D1005108831603179C0083120313121522
:10039000492CB7301D06031DCE29CF29A02A0430D1
:1003A0001C06031DD429D529A02A8A2AF30101306D
:1003B0000A168A15E0230A128A114A30831203139F
:1003C000A0009030A1008030D1005108A2000A1690
:1003D0008A156E250A128A11083083120313D10080
:1003E0005108831603179B00083083120313D100B2
:1003F0005108831603179C00492CF30101300A169B
:100400008A15E0230A128A11043083120313D100E3
:100410005108831603179B00103083120313D10079
:100420005108831603179C00C529F30101300A16F1
:100430008A15E0230A128A11033083120313D100B4
:100440005108831603179B00203083120313D10039
:100450005108831603179C00C529F30101300A16C1
:100460008A15E0230A128A11473083120313A00071
:100470009130A1008030D1005108A2000A168A15DF
:100480006E250A128A11103083120313D10051080D
:10049000831603179B00403083120313D1005108C9
:1004A000831603179C00492CF30101300A168A15A4
:1004B000E0230A128A11153083120313A000903032
:1004C000A1008030D1005108A2000A168A156E25BD
:1004D0000A128A11C03083120313D1005108A400FC
:1004E00020300A168A1555230A128A11F3010F309B
:1004F0000A168A15E0230A128A11831603179B0134
:100500009B0A803083120313D1005108831603170E
:100510009C00C5291308003A03198F2A492C120898
:10052000003A0319D629013A0319FD29033A0319A0
:10053000152A013A03192D2A073A0319542A492C7E
:10054000AF301D06031DA52AA62ABF2A04301C06AB
:10055000031DAB2AAC2ABF2AF30101300A168A1503
:10056000E0230A128A11F3010C300A168A15E023DF
:100570000A128A11831603179C019C0A492CAF307A
:100580001D06031DC42AC52AF62A08301C060319B5
:10059000CA2ACB2AD72A80301C060319D02AD12A8E
:1005A000D72A40301C06031DD62AD72AF62AF30183
:1005B00001300A168A15E0230A128A11F3010C3061
:1005C0000A168A15E0230A128A11043083120313D3
:1005D000D1005108831603179C00023083120313C5
:1005E000D1005108831603179B00492C492C831610
:1005F00003171A0883120313AC0083160317190894
:1006000083120313AB0094300A168A112A240A12AB
:100610008A116F2C831603179C019C0A8312031303
:100620001211F3010C300A168A15E0230A128A11FE
:100630006F2C0430D1005108831603179C00023040
:1006400083120313D1005108831603179B008312F2
:1006500003131211F3010C300A168A15E0230A1253
:100660008A117628831603171B0883120313D100FF
:100670005108AC00831603171D080A128A15692455
:100680000A128A1183120313D200D3015308003ACD
:1006900003194B2B6F2C5208013A0319192B033AFB
:1006A00003190A2B6F2C831603171B0883120313DD
:1006B000D1005108A600831603171D080A128A15D7
:1006C0003C200A128A11831203132708831603178A
:1006D00093008312031326088316031792006F2CCE
:1006E000831603171B0883120313D1005108A900B6
:1006F000831603171D080A128A154D210A128A1142
:100700006F2C831603171B080A168A157F260A12F8
:100710008A11113A031D8D2B8E2B6F2C7130831291
:100720000313AB009130AC00831603171A08831231
:100730000313AE0083160317190883120313AD00C9
:100740000A168A15A6270A128A1183120313121198
:100750000430D1005108831603179C000230831225
:100760000313D1005108831603179B00F3010130D6
:100770000A168A15E0230A128A11762883160317AF
:100780001B080A168A1111270A128A11113A031D31
:10079000CA2BCB2B6F2C043083120313D1005108CA
:1007A000831603179C00023083120313D1005108F3
:1007B000831603179B00F30101300A168A15E02304
:1007C0000A128A1183120313121176288316031753
:1007D0001B0883120313D1005108AB0083160317C3
:1007E0001D080A128A15D6220A128A116F2C831646
:1007F00003179C019C0A831203131211F3010C309E
:100800000A168A15E0230A128A116F2CF3010130AF
:100810000A168A15E0230A128A1104308312031380
:10082000D1005108831603179C0002308312031372
:10083000D1005108831603179B0083120313121172
:10084000F3010C300A168A15E0230A128A11762861
:10085000831603171B0883120313D1005108AC0041
:10086000831603171D080A168A11B0250A128A1169
:1008700083120313D200D3015308003A0319412C09
:100880006F2C5208023A0319F72B133A0319062C5E
:100890006F2C831603171C0883120313D100D20197
:1008A0005208003A0319552C6F2C5108013A0319CC
:1008B000F72A033A0319322B063A0319532B0C3A41
:1008C0000319702B183A0319812B303A0319BE2BE8
:1008D000603A0319E62BC03A0319282C6F2C8316B3
:1008E00003179B0176280A128A111028831203131A
:1008F00031088039B6003608BB003108B60036072B
:10090000B7003708C100B01F862C872C882C4114F3
:10091000410803198C2C8D2C9C2C410A031D912C11
:10092000922C9A2C0030B1000030B0000030AF00A3
:100930000030AE00B017A42C0030B1000030B00081
:100940000030AF000030AE0035088039B600360800
:10095000BB063508B6003607B7003708BC00B41F21
:10096000B22CB32CB42C3C143C080319B82CB92C71
:10097000C82C3C0A031DBD2CBE2CC62C0030B50073
:100980000030B4000030B3000030B200B417D02CF7
:100990000030B5000030B4000030B3000030B200C9
:1009A0003C080319D42CD52CDA2C4108031DD92C72
:1009B000DA2CE32C0030B1000030B0000030AF0082
:1009C0000030AE00D62F2E08B6003608F3003408EB
:1009D0000A168A15B9240A128A117408831203139D
:1009E000C7007308C6004608B600B701B801B901D0
:1009F0003908C0003808BF003708BE003608BD00FF
:100A00004708B600B701B801B9013908C500380870
:100A1000C4003708C3003608C2002F08B6003608E5
:100A2000F30033080A168A15B9240A128A117408C9
:100A300083120313C7007308C6004608B600B70147
:100A4000B801B9013608BD07370803110318013E84
:100A500003192B2DBE07380803110318013E031993
:100A6000322DBF07390803110318013E0319392D30
:100A7000C0074708B600B701B801B9013608C20778
:100A8000370803110318013E0319472DC30738081F
:100A900003110318013E03194E2DC4073908031131
:100AA0000318013E0319552DC5073008B600360856
:100AB000F30032080A168A15B9240A128A1174083A
:100AC00083120313C7007308C6004608B600B701B7
:100AD000B801B9013608BD07370803110318013EF4
:100AE0000319732DBE07380803110318013E0319BB
:100AF0007A2DBF07390803110318013E0319812D10
:100B0000C0074708B600B701B801B9013608C207E7
:100B1000370803110318013E03198F2DC307380846
:100B200003110318013E0319962DC4073908031158
:100B30000318013E03199D2DC5070830B6000310A8
:100B4000BD0DBE0DBF0DC00DB60B9F2D2F08B600FD
:100B50003608F30032080A168A15B9240A128A11D7
:100B6000740883120313C7007308C6004608B60052
:100B70004708B700B801B9013608BD0737080311A7
:100B80000318013E0319C52DBE07380803110318C9
:100B9000013E0319CC2DBF07390803110318013E8C
:100BA0000319D32DC0072E08B6003608F30033080A
:100BB0000A168A15B9240A128A11740883120313BB
:100BC000C7007308C6004608B6004708B700B8015A
:100BD000B9013608BD07370803110318013E031990
:100BE000F22DBE07380803110318013E0319F92D31
:100BF000BF07390803110318013E0319002EC0076F
:100C00000830B6000310BD0DBE0DBF0DC00DB60BF4
:100C1000022E2E08B6003608F30032080A168A158E
:100C2000B9240A128A11740883120313C7007308C7
:100C3000C6004608B6004708B700B801B901360833
:100C4000BD07370803110318013E0319282EBE07FC
:100C5000380803110318013E03192F2EBF07390866
:100C600003110318013E0319362EC0072F08B600E2
:100C70003608F30034080A168A15B9240A128A11B4
:100C8000740883120313C7007308C6004608B60031
:100C90004708B700B801B9013608C2073708031181
:100CA0000318013E0319552EC30738080311031812
:100CB000013E03195C2EC407390803110318013ED5
:100CC0000319632EC5073008B6003608F300330851
:100CD0000A168A15B9240A128A117408831203139A
:100CE000C7007308C6004608B6004708B700B80139
:100CF000B9013608C207370803110318013E03196A
:100D0000822EC307380803110318013E0319892EE8
:100D1000C407390803110318013E0319902EC507B3
:100D20003008B6003608F30034080A168A15B924CC
:100D30000A128A11740883120313C7007308C600CD
:100D40004608B6004708B700B801B90108300310DB
:100D5000B60DB70DB80DB90DFF3E031DA72E360811
:100D6000C207370803110318013E0319B82EC30741
:100D7000380803110318013E0319BF2EC4073908B0
:100D800003110318013E0319C62EC5073D08B6001E
:100D90003E08B7003F08B8004008B90018300310FB
:100DA000B90CB80CB70CB60CFF3E031DCF2E36089D
:100DB000C207370803110318013E0319E02EC307C9
:100DC000380803110318013E0319E72EC407390838
:100DD00003110318013E0319EE2EC5070830B600B3
:100DE0000310BD0DBE0DBF0DC00DB60BF02E41089A
:100DF0003C07B600B701B70D3608823EC60037087B
:100E00000318013EFF3EC700222F0130B600031039
:100E1000C20DC30DC40DC50DB60B072FC01F112F7A
:100E2000122F132F42140130B6000310BD0DBE0D5A
:100E3000BF0DC00DB60B152FFF30C6070318C70A2C
:100E4000FF30C707C41F252F262F052FBC01C01F49
:100E50002A2F2B2F472FFF303D05B600FF303E05D0
:100E6000B700FF303F05B8007F304005B9003908B2
:100E700038043704360403193E2F3F2F422FBC019C
:100E8000BC0A472F421C452F462F472F3F2F3C08B7
:100E900003194B2F4C2F7D2F0130C2070030031850
:100EA0000130C307003003180130C40700300318B5
:100EB0000130C507451C5D2F5E2F7D2F4208B6000F
:100EC0004308B7004408B8004508B9000130BA002B
:100ED000390DB90CB80CB70CB60CBA0B682F390821
:100EE000C5003808C4003708C3003608C200013006
:100EF000C6070318C70A0030C7074708803AFF0033
:100F000080307F02031D862FFF304602031C892F8D
:100F10008A2F952F7F3083120313C5008030C400C1
:100F20000030C3000030C200CA2F831203134708E9
:100F3000803AFF0080307F02031DA02F013046025F
:100F40000318A32FA42FB02F003083120313C50062
:100F50000030C4000030C3000030C200BB01CA2F03
:100F6000831203134608B6003608C100FF30C205DD
:100F7000FF30C3057F30C4050030C505411CC12FBB
:100F8000C22FC32FC4174108B6000310360CB70098
:100F90003708C5003B08B6003608C5044508B1004F
:100FA0004408B0004308AF004208AE0008008312B6
:100FB0000313AA01AB01831203132A080A168A1528
:100FC000D5250A128A1183120313A9002A08D23EDA
:100FD00084002908831380000130AA070318AB0A94
:100FE0000030AB072B08803AFF0080307F02031DE2
:100FF000FB2F04302A02031CFE2FFF2FDB2F0800DB
:10100400730874040319072808283728F801F80A14
:10101400162801300310F30DF40DFF3E031D0C28B8
:101024000130F7007708F807F41F19281A280B284D
:1010340074087602031D202873087502031C2328F4
:1010440024282A287308F5027408031CF603F60200
:1010540001300310F40CF30CFF3E031D2B28013068
:10106400F802031D362837281A287608F400750874
:10107400F300080083120313AB0002302606031D9D
:10108400442845284D28DC01DD0101308316031373
:10109400E8000030E9002F3083122B06031D53288B
:1010A400542887285D08803AFF0080307F02031DA2
:1010B4005D2804305C020318602861288728013009
:1010C40083120313DC070318DD0A0030DD078316DF
:1010D40003136908803AFF0080307F02031D7428DF
:1010E4000230680203187728782880280130831694
:1010F4000313E8070318E90A0030E907F301013094
:101104000A168A15E0230A128A153730831203134C
:101114002B06031D8E288F28C2285D08803AFF0005
:1011240080307F02031D982801305C02031C9B2839
:101134009C28C228FF3083120313DC070318DD0A3E
:10114400FF30DD07831603136908803AFF008030FF
:101154007F02031DAF2802306802031CB228B328A3
:10116400BB28FF3083160313E8070318E90AFF308E
:10117400E907F30101300A168A15E0230A128A15D9
:101184008316031368036904031DC928CA280529A3
:10119400803083120313A8002808A4002A300A16FA
:1011A4008A1555230A128A15831203135C08A800B2
:1011B4002807DB3E840083130008A000840A00088B
:1011C4008403A1008230AA002A08A2000A168A1504
:1011D4006E250A128A15831203135C08A8002807D7
:1011E400DD3E840083130008A000840A0008840301
:1011F400A100C230AA002A08A2000A168A156E2588
:101204000A128A154629023068066904031D0B294F
:101214000C294629C03083120313A8002808A4000F
:101224002A300A168A1555230A128A1583120313C3
:101234005C08A8002807D93E840083130008A00096
:10124400840A00088403A1008230AA002A08A200AC
:101254000A168A156E250A128A15831203135C086E
:10126400A8002807DB3E840083130008A000840A3A
:1012740000088403A100C230AA002A08A2000A16AA
:101284008A156E250A128A15831203135D08A700B6
:101294005C08A600080083120313B800B601831685
:1012A40003136A0A031D5A296B0A031D5A295B2971
:1012B4006B29273083120313A0009030A100C030A3
:1012C400AA002A08A2000A168A156E250A128A158F
:1012D400D52A0830831203132906031D72297329A2
:1012E400772983160313AA01AB0183160313350868
:1012F400031D7D297E29832983120313B901BA01B1
:101304009A290A30F3000030F4006C08013EF5001D
:101314006D080318013E003EF6000A168A11C52125
:101324000A128A15740883120313BA007308B900E9
:1013340037303806031D9F29A029C12983160313BA
:101344002B08803A83120313AA00831603136B0835
:10135400803A831203132A02031DB429831603134C
:101364006A082A020318B729B829C129013083164B
:101374000313AA070318AB0A0030AB07E0292F3088
:10138400831203133806031DC829C929E0298316CB
:1013940003132B08803AFF0080307F02031DD429F9
:1013A40001302A02031CD729D829E029FF308316EB
:1013B4000313AA070318AB0AFF30AB070A30F30084
:1013C4000030F400831603132A0883120313390729
:1013D400F500831603132B0803182B0A8312031337
:1013E4003A07F6000A168A11C5210A128A157408EA
:1013F40083120313BA007308B900BB01BC010A309D
:1014040083120313AA002A08F30039080A168A155E
:101414007F230A128A15831203133B07053EAB0090
:101424002B08B70037080A168A15D5250A128A151B
:1014340083120313AA003B082C3E84002A0883135A
:1014440080000130BB070318BC0A0030BC073C080D
:10145400803AFF0080307F02031D322A0A303B02AB
:10146400031C352A362A012AC03083120313AA002A
:101474002A08A400831603132A08303E0A168A1584
:1014840055230A128A15C23083120313AA002A08AC
:10149400A4002C080A168A1555230A128A15C3308B
:1014A40083120313AA002A08A4002D080A168A1519
:1014B40055230A128A15C43083120313AA002A087A
:1014C400A4003A300A168A1555230A128A15C53023
:1014D40083120313AA002A08A4002E080A168A15E8
:1014E40055230A128A15C63083120313AA002A0848
:1014F400A4002F080A168A1555230A128A15C73024
:1015040083120313AA002A08A4003A300A168A1583
:1015140055230A128A15C83083120313AA002A0815
:10152400A40030080A168A1555230A128A15C930F0
:1015340083120313AA002A08A40031080A168A1584
:1015440055230A128A15CB3083120313AA002A08E2
:10155400A40032080A168A1555230A128A15CC30BB
:1015640083120313AA002A08A40033080A168A1552
:1015740055230A128A15CE3083120313AA002A08AF
:10158400A40034080A168A1555230A128A15CF3086
:1015940083120313AA002A08A40035080A168A1520
:1015A40055230A128A15080083120313AE00103063
:1015B4002B06031DDE2ADF2AF92A0530AC002C088D
:1015C400E1000730AC002C08E0000A168A111C2543
:1015D4000A128A150A168A11BD230A128A1583165D
:1015E4000313B301B201B20A83120313AE01013033
:1015F40083160313A6070318A70A0030A70765304C
:1016040026062704031D072B082B3C2BA601A70144
:10161400320803190E2B102B0130112B00308312CA
:101624000313AC002C0883160313B2003203031D0A
:101634001C2B1D2B2B2B831203136008C03EAC0004
:101644002C08A400FF300A168A1555230A128A159D
:101654003C2B831203136008C03EAC002C08A4008A
:101664006108C13E8400831300080A168A155523B5
:101674000A128A153730831203132E06031D432BD7
:10168400442BC62B0130AC006108C13E84002C08F9
:1016940083138007053061060319512B522B582BF5
:1016A40003306106031D572B582B692B6108C13E7B
:1016B40084003A300002031C602B612B692B30300C
:1016C400AC006108C13E84002C088000BC2B0430AF
:1016D400610603196E2B6F2B752B02306106031DF7
:1016E400742B752B7F2B6108C13E840036300002B9
:1016F400031C7D2B7E2B7F2B612B61030319832B12
:10170400842B892B6108031D882B892BBC2B3A3031
:10171400831603134202031C902B912B992B303018
:1017240083120313AC002C0883160313C200323057
:101734004106031D9E2B9F2BAD2B34304202031C0C
:10174400A42BA52BAD2B303083120313AC002C0833
:1017540083160313C20033304102031CB22BB32B94
:10176400BC2B303083120313AC002C0883160313F4
:10177400C100BC2B0A168A11BD230A128A158316CE
:101784000313B301B30AF72B2F302E06031DCB2B03
:10179400CC2BF72B0130E0020130E102063061026C
:1017A400031CD52BD62BDA2B0530AC002C08E1001A
:1017B400023060060319DF2BE02BE62B05306006B0
:1017C400031DE52BE62BE82B0130E0020830600214
:1017D400031CED2BEE2BF22B0730AC002C08E000A1
:1017E4000A168A11BD230A128A15831603133303BA
:1017F400031DFD2BFE2B682CB30183120313D501AB
:1018040083160313410883120313AC00043003103E
:10181400AC0DFF3E031D092C831603134208D03E72
:10182400831203132C04AD002D08D5045508AC0015
:101834002C08A00002300A168A1523240A128A15DD
:1018440083120313D601831603134308831203136D
:10185400AC0004300310AC0DFF3E031D2C2C83168A
:1018640003134408D03E831203132C04AD002D0847
:10187400D6045608AC002C08A00001300A168A15BC
:1018840023240A128A1583120313D7018316031320
:10189400450883120313AC0004300310AC0DFF3E63
:1018A400031D4F2C831603134608D03E83120313E3
:1018B4002C04AD002D08D7045708AC002C08A00058
:1018C40000300A168A1523240A128A150800831286
:1018D4000313AE002C03031D702C712C902C831663
:1018E4000313D701D801D901DA0183120313E201EA
:1018F4003330AD002D0883160313B4000530AE0059
:101904000030AF0083120313DE01DF010A128A11D3
:10191400D7270A128A1583120313AE018316031301
:101924002E082F04031D972C982C9A2C0230002E7D
:1019340004308312031362020318A12CA22CCA2CB4
:1019440037302E06031DA72CA82CCA2C053083166D
:101954000313AE000030AF00303083120313AD0028
:101964006208D73E84002D08831380006208C63EB7
:10197400AD002D08A4002A300A168A1555230A1230
:101984008A15013083120313AD002D08E207FF2DE1
:10199400043062020318CF2CD02CF22C2F302E06E8
:1019A400031DD52CD62CF22C053083160313AE0060
:1019B4000030AF00313083120313AD006208D73E0C
:1019C40084002D08831380006208C63EAD002D08F4
:1019D400A4002A300A168A1555230A128A15C32C24
:1019E40004306206031DF72CF82CFF2D0A128A110D
:1019F400D7270A128A15D73083120313AD002D0896
:101A0400F3000430F4000030F500D2300A168A15D1
:101A140041260A128A1573087404031D122D132D0E
:101A24001C2DF30101300A168A15E0230A128A15C7
:101A34000130002E013083160313B4023030340613
:101A4400031D252D262DA12DF30101300A168A151B
:101A5400E0230A128A15BB3083120313A0009030CE
:101A6400A1008030AD002D08A2000A168A156E254B
:101A74000A128A15AC3083120313A0009030A1001F
:101A8400C030AD002D08A2000A168A156E250A1270
:101A94008A153C3083120313DE000030DF00F301AB
:101AA4000C300A168A15E0230A128A158B2DC830C9
:101AB400AD002D08A4000A30F3000030F4005F08E4
:101AC400F6005E08F5000A168A11E9220A128A1540
:101AD4007308303E0A168A1555230A128A15C9302E
:101AE40083120313AD002D08A4000A30F300003064
:101AF400F4005F08F6005E08F5000A168A11C52195
:101B04000A128A157308303E0A168A1555230A12DA
:101B14008A15831203135E085F04031D922D932D0F
:101B2400592D3330AD002D0883160313B400F3018F
:101B34000F300A168A15E0230A128A15E02DF301E4
:101B440001300A168A15E0230A128A159D30831281
:101B54000313A0009030A1008130AD002D08A20035
:101B64000A168A156E250A128A15C03083120313C9
:101B7400AD002D08A4008316031334080A168A1531
:101B840055230A128A150E3083120313A0009130D4
:101B9400A100C230AD002D08A2000A168A156E25D8
:101BA4000A128A15033083120313DE000030DF00AB
:101BB4005E085F04031DDF2DE02DDA2DF3010130F3
:101BC4000A168A15E0230A128A15CA3083120313EF
:101BD400A0009030A1008130AD002D08A2000A16AB
:101BE4008A156E250A128A15053083160313AE0072
:101BF4000030AF0083120313E20110300800831297
:101C04000313A800831603132C082D04031D0B2EA5
:101C14000C2E502EF30101300A168A15E0230A1205
:101C24008A1583120313D801D9017D30A0009030A6
:101C3400A1008130A7002708A2000A168A156E2584
:101C44000A128A15C03083120313A7002708A400C0
:101C540020300A168A1555230A128A15F3010F300B
:101C64000A168A15E0230A128A1583120313DE0169
:101C7400DF01053083160313AE000030AF003330AC
:101C840083120313A700270883160313B10001303E
:101C9400AC000030AD0083120313A80183160313B4
:101CA4002E082F04031D572E582E5A2E0230FF2FB4
:101CB4000030831203135902043003195802031825
:101CC400642E652E8F2E37302806031D6A2E6B2E48
:101CD4008F2E053083160313AE000030AF00303072
:101CE40083120313A7005808C83E840027088313EF
:101CF40080005808C63EA7002708A4002A300A1608
:101D04008A1555230A128A15013083120313D80742
:101D14000318D90A0030D907FE2F003059020430C5
:101D2400031958020318972E982EBA2E2F3028061E
:101D3400031D9D2E9E2EBA2E053083160313AE006E
:101D44000030AF00313083120313A7005808C83E97
:101D540084002708831380005808C63EA70027087C
:101D6400A4002A300A168A1555230A128A15862ECB
:101D7400043058065904031DC02EC12EFE2FC8304E
:101D8400A7002708F3000430F4000030F50026080B
:101D94000A168A1541260A128A1573087404031D4B
:101DA400D42ED52E1A2FF30101300A168A15E023FA
:101DB4000A128A15033083120313DE000030DF0099
:101DC400F3010C300A168A15E0230A128A15062F2D
:101DD4006C30A0009030A1008030A7002708A2003A
:101DE4000A168A156E250A128A151B3083120313EC
:101DF400A0009130A100C330A7002708A2000A1652
:101E04008A156E250A128A15831203135E085F046D
:101E1400031D0D2F0E2FEA2EC830A7002708A2009D
:101E240000300A168A1500240A128A151130FF2F71
:101E3400013083160313B10230303106031D232F02
:101E4400242F9F2FF30101300A168A15E0230A126A
:101E54008A15BB3083120313A0009030A100803098
:101E6400A7002708A2000A168A156E250A128A15E9
:101E7400AC3083120313A0009030A100C030A7003F
:101E84002708A2000A168A156E250A128A151E3022
:101E940083120313DE000030DF00F3010C300A1656
:101EA4008A15E0230A128A15892FC830A70027084B
:101EB400A4000A30F3000030F4005F08F6005E0866
:101EC400F5000A168A11E9220A128A157308303EAF
:101ED4000A168A1555230A128A15C9308312031368
:101EE400A7002708A4000A30F3000030F4005F08BC
:101EF400F6005E08F5000A168A11C5210A128A1531
:101F04007308303E0A168A1555230A128A1583125D
:101F140003135E085F04031D902F912F572F333056
:101F2400A700270883160313B100F3010F300A1624
:101F34008A15E0230A128A15DE2FF30101300A16EE
:101F44008A15E0230A128A15F43083120313A000C1
:101F54009030A1008130A7002708A2000A168A1534
:101F64006E250A128A15C03083120313A7002708AE
:101F7400A4008316031331080A168A1555230A127E
:101F84008A15D93083120313A0009030A100C23007
:101F9400A7002708A2000A168A156E250A128A15B8
:101FA400033083120313DE000030DF005E085F0499
:101FB400031DDD2FDE2FD82FF30101300A168A15F9
:101FC400E0230A128A157D3083120313A000903097
:101FD400A1008030A7002708A2000A168A156E25E2
:101FE4000A128A15053083160313AE000030AF00C1
:101FF40083120313D801D901103008000D340A34B8
:1020040023342034543449344D344534203420347A
:102014002034453456344E345434203453345034FC
:102024000A340D34003445346E34743465347234F7
:1020340020344E346534773420345034613473346E
:10204400733477346434203400346E346F34203481
:102054006C346F34673473342034613476346134CF
:1020640069346C34613462346C3465340034203443
:1020740045346E34743465347234203450346134ED
:102084007334733477346F347234643420340034EA
:1020940023342034543449344D34453420342034EA
:1020A4002034453456344E3454342034533450346C
:1020B400003420342034543449344D3445342034ED
:1020C4002034453456344E3454342034203453347C
:1020D40050340034503461347334733477346F348F
:1020E4007234643420344334683461346E34673475
:1020F40065346434003443346F346E346634693484
:1021040072346D342034503461347334733477341E
:1021140072346434003444346F3477346E346C3441
:102124006F34613464346534643420344C346F3433
:10213400673473340034573452344F344E34473494
:102144002034503441345334533457344F3452349C
:1021540044340034573461346934743420342E34B4
:102164002E342034363430342034733465346334BC
:10217400003459346F347534203461347234653426
:1021840020346C346F3463346B3465346434003419
:1021940045346E34743465347234203450346134CC
:1021A4007334733477346F347234643400344134A8
:1021B4007434743465346D3470347434733420344A
:1021C4004C346534663474340034433468346134D4
:1021D4006E34673465342034503461347334773466
:1021E400643400344E346F34743420346D346134C8
:1021F40074346334683469346E346734003444347A
:102204006F3477346E346C346F3461346434203416
:102214004C346F346734003441347434743465346A
:102224006D347034743420344C346534663474340E
:102234000034533475346334633465347334733421
:10224400663475346C346C347934003453347534F6
:1022540063346334653473347334663475346C3482
:10226400003443344C3445344134523420344C34F7
:102274004F344734003443346C346534613472343D
:1022840020344C346F3467340034483448343A349E
:102294004D344D343A345334533400345334653468
:1022A40074342034543469346D3465340034563411
:1022B40069346534773420344C346F3467340034F3
:1022C40047343134003447343234003447343334FF
:1022D4000034473434340034203443340034433439
:1022E4004C34003447344E340034473452340034D0
:1022F600F700770883120313A0002008F800A72927
:102306000130F5020030031CF603F6027408A10042
:102316007308A000F30A0319F40A2108FF00200835
:1023260084000A168A1500200A168A11A200780867
:1023360084000130F8072208831380000008031D7B
:10234600A529A629A729B62975087604031DAC294F
:10235600AD298329B62978088400831380010130CA
:10236600A0002008F8070130F5020030031CF60330
:10237600F602750A031DC329760A031DC329C4295B
:10238600AE29080083120313A101F61FCB29CC291D
:10239600D329F509F609F50A0319F60AA101A10AD6
:1023A600F41FD629D729DC29F309F409F30A0319FE
:1023B600F40A730874040319E129E229112AA00119
:1023C600A00AF02901300310F30DF40DFF3E031DA2
:1023D600E6290130F7007708A007F41FF329F4294E
:1023E600E52974087602031DFA2973087502031C91
:1023F600FD29FE29042A7308F5027408031CF60356
:10240600F60201300310F40CF30CFF3E031D052AFF
:102416000130A002031D102A112AF42921080319EC
:10242600152A162A1B2AF509F609F50A0319F60ACA
:102436007608F4007508F3000800F4007408031D1C
:10244600252A262A2B2A8312031306083F39802AB7
:102456003F30831203130605F3003F30730603195A
:10246600352A362A432A7A0803193A2A3B2A432A66
:10247600FA01E30106083F39F3007308F9007F2AE1
:102486007A08031D472A482A5A2A06083F39790638
:10249600031D4E2A4F2A5A2A323063020318542A41
:1024A600552A5A2A0130F3007308E3077F2A32308F
:1024B6006306031D5F2A602A672A0130F30073084A
:1024C600E30779088038802A3F300605F3003F305D
:1024D6007306031D6F2A702A7F2A7A08031D742A41
:1024E600752A7F2AFA01FA0A3230630203187C2A17
:1024F6007D2A7F2A7908802A3F3008000030F700BD
:102506000030F6000030F5000030F40083120313AB
:1025160023082204210420040319922A932AE02A7C
:10252600F801F80AA32A0130F3000310A00DA10D4B
:10253600A20DA30DF30B982A0130F3007308F807D8
:10254600A31FA62AA72A962A0130F3000310F40D2A
:10255600F50DF60DF70DF30BA92A23082702031D27
:10256600BE2A22082602031DBE2A21082502031DB3
:10257600BE2A20082402031CC12AC22AD12A200806
:10258600A4022108031C210FA5022208031C220F06
:10259600A6022308031C230FA7027414013003109C
:1025A600A30CA20CA10CA00CFF3E031DD22A0130E5
:1025B600F802031DDF2AE02AA72A7708A300760877
:1025C600A2007508A1007408A00008008312031376
:1025D600A101F41FEF2AF02AF72AF309F409F30AF6
:1025E6000319F40AA101A10AF61FFA2AFB2A042BF1
:1025F600F509F609F50A0319F60A0130F700770816
:10260600A106A201A3017308740403190B2B0C2B5A
:10261600432BA001A00A1A2B01300310F30DF40D71
:10262600FF3E031D102B0130F7007708A007F41FAB
:102636001D2B1E2B0F2B01300310A20DA30DFF3EE9
:10264600031D1F2B74087602031D2B2B73087502BE
:10265600031C2E2B2F2B362B7308F5027408031C34
:10266600F603F602221401300310F40CF30CFF3EBD
:10267600031D372B0130A002031D422B432B1E2BBB
:1026860021080319472B482B4D2BA209A309A20A9F
:102696000319A30A2308F4002208F30008000D30EA
:1026A60083120313A200AF30A100B530A000A00B27
:1026B6005A2BA10B5A2BA20B5A2B612BF301333049
:1026C6000A168A15E0230A168A111B308312031391
:1026D600A1009D30A000A00B6E2BA10B6E2B732BBF
:1026E600F30133300A168A15E0230A168A11A5303B
:1026F60083120313A000A00B7E2B812BF301333032
:102706000A168A15E0230A168A11A53083120313C6
:10271600A000A00B8C2B8F2BF30138300A168A15DC
:10272600E0230A168A11A53083120313A000A00B1A
:102736009A2B9D2BF30101300A168A15E0230A16FF
:102746008A11043083120313A1003D30A000A00BB0
:10275600AA2BA10BAA2BF3010C300A168A15E0232B
:102766000A168A11A53083120313A000A00BB92BF9
:10277600BC2B0800C03083120313A6002608A40051
:102786008316031341080A168A1555230A168A1159
:10279600C13083120313A6002608A4008316031370
:1027A60042080A168A1555230A168A11C230831260
:1027B6000313A6002608A4003A300A168A155523E4
:1027C6000A168A11C33083120313A6002608A40032
:1027D6008316031343080A168A1555230A168A1107
:1027E600C43083120313A6002608A400831603131D
:1027F60044080A168A1555230A168A11C53083120B
:102806000313A6002608A4003A300A168A15552393
:102816000A168A11C63083120313A6002608A400DE
:102826008316031345080A168A1555230A168A11B4
:10283600C73083120313A6002608A40083160313C9
:1028460046080A168A1555230A168A1108008312A5
:102856000313AE005B30A0009030A1008030AD00C5
:102866002D08A2000A168A156E250A168A110A165E
:102876008A111C250A168A110A168A11BD230A1600
:102886008A11C83083120313AD002D08A40020302E
:102896000A168A1555230A168A11831203132E085F
:1028A600A0000130A100C930AD002D08A2000A1613
:1028B6008A156E250A168A11CC3083120313AD00D1
:1028C6002D08A40020300A168A1555230A168A11E7
:1028D600CE3083120313AD002D08A4000A30F30096
:1028E6000030F4002C08F6002B08F5000A168A15AD
:1028F600BE260A168A117308303E0A168A15552313
:102906000A168A11CF3083120313AD002D08A400D6
:102916000A30F3000030F4002C08F6002B08F5000E
:102926000A128A1502200A168A117308303E0A1600
:102936008A1555230A168A110800031083120313F9
:102946004A0D4B0DCC004C08F8007808031DAC2C42
:10295600AD2CB62C0030CB000030CA000030C900C8
:102966000030C8001B2D4808CC004908CD004A0895
:10297600CE004B08CF001F300310CF0CCE0CCD0C71
:10298600CC0CFF3E031DBF2C4C08D0005008F700AE
:10299600CA17FF30C805FF30C905FF30CA05003029
:1029A600CB059630F802F81FD92CDA2CF42C7808CF
:1029B600803A973E0318E02CE12CE22CAD2C013036
:1029C6000310CB0CCA0CC90CC80CFF3E031DE32C2C
:1029D6000130CC004C08F807031DF22CF32CE22C36
:1029E6000B2D20307802031CF92CFA2C062DAD2C69
:1029F6000130CC000310C80DC90DCA0DCB0DCC0B90
:102A0600FD2C0130F8027808031D0A2D0B2DFB2C36
:102A1600770803190F2D102D1B2DC809C909CA09DE
:102A2600CB09C80A0319C90A0319CA0A0319CB0A2A
:102A3600080002300A168A150B260A168A11831216
:102A46000313A9002908D50001300A168A150B269A
:102A56000A168A1183120313A9002908D60000302A
:102A66000A168A150B260A168A1183120313A90061
:102A76002908D700551F402D412D5C2D5508A9006A
:102A860004300310A90CFF3E031D442D290801390B
:102A9600303EAA002A0883160313C10083120313CB
:102AA60055080F39303EA900290883160313C200C2
:102AB600762D5508A90004300310A90CFF3E031D0E
:102AC6005F2D29080339303EAA002A08831603130E
:102AD600C1008312031355080F39303EA900290897
:102AE60083160313C200831203135608A900043089
:102AF6000310A90CFF3E031D7B2D29080F39303E1C
:102B0600AA002A0883160313C30083120313560868
:102B16000F39303EA900290883160313C400831217
:102B260003135708A90004300310A90CFF3E031D28
:102B3600972D29080F39303EAA002A088316031359
:102B4600C5008312031357080F39303EA900290820
:102B560083160313C600C701080083120313AE00D1
:102B66002C03031DB72DB82DD72D83160313CD01C6
:102B7600CE01CF01D001D10183120313DA01DB01AB
:102B8600053083160313AE000030AF008312031323
:102B9600DE01DF01AE010A128A11D7270A168A1151
:102BA60083160313AC01AD01831603132E082F04FD
:102BB600031DDE2DDF2DE12D0230542E0030831251
:102BC60003135B02043003195A020318EB2DEC2D94
:102BD600162E37302E06031DF12DF22D162E05303A
:102BE60083160313AE000030AF0030308312031398
:102BF600AD005A08CD3E84002D08831380005A0884
:102C0600C63EAD002D08A4002A300A168A155523A3
:102C16000A168A11013083120313DA070318DB0A36
:102C26000030DB07532E00305B02043003195A02D2
:102C360003181E2E1F2E412E2F302E06031D242E66
:102C4600252E412E053083160313AE000030AF004B
:102C5600313083120313AD005A08CD3E84002D088F
:102C6600831380005A08C63EAD002D08A4002A3002
:102C76000A168A1555230A168A110D2E04305A068D
:102C86005B04031D472E482E532ECD30AD002D0874
:102C9600A6002E080A128A1501260A168A11542E33
:102CA6001030080083120313A800280803195C2EAD
:102CB6005D2E712EA31F602E612E712E2009AA0093
:102CC6002109AB002209AC002309AD00AA0A0319A9
:102CD600AB0A0319AC0A0319AD0A792E2308AD0015
:102CE6002208AC002108AB002008AA002308220411
:102CF60021042004031D802E812E8A2E0030A3007D
:102D06000030A2000030A1000030A000102F963045
:102D1600A4002408A9009C2E0130A4002408A907B9
:102D260001300310AD0CAC0CAB0CAA0CFF3E031D1E
:102D3600942EFE302D05031DA12EA22E8F2EBE2E03
:102D46000130A4002408A9070130AA07003003189F
:102D56000130AB07003003180130AC070030031810
:102D66000130AD0701300310AD0CAC0CAB0CAA0C56
:102D7600FF3E031DB62EFF302D05031DC32EC42EA8
:102D8600A32ED02E0130A9020130A4000310AA0DF3
:102D9600AB0DAC0DAD0DA40BC92EAC1BD32ED42E92
:102DA600DA2E023029020318D92EDA2EC52E29185A
:102DB600DD2EDE2EE62EFF30AA05FF30AB057F3076
:102DC600AC05FF30AD050310A90C2908A400A50128
:102DD600A601A70118300310A40DA50DA60DA70D79
:102DE600FF3E031DEE2E2408AA042508AB04260880
:102DF600AC042708AD0428080319022F032F082F57
:102E0600A31F062F072F082FAD172D08A3002C0888
:102E1600A2002B08A1002A08A000080083120313B1
:102E2600B50003303506031D192F1A2F272F8316D9
:102E36000313A801A9010030F4009030F5000A162A
:102E46008A156C240A168A118316031329086B0245
:102E5600031D2F2F28086A020318322F332F582FED
:102E6600F30101300A168A15E0230A168A11033087
:102E760083120313DE000030DF004E2F8D30A000DA
:102E86009030A1008030A9002908A2000A168A15F0
:102E96006E250A168A11831203135E085F04031D4A
:102EA600552F562F412F1130FF2F83120313B801D0
:102EB600B901831603132908F4002808F3000A3021
:102EC600F5000030F6000A168A1547240A168A11FC
:102ED6008312031338087307A90039080318390A3F
:102EE6007407AA002908053EB6002A080318013E01
:102EF600003EB70038083904031D822F832F922F16
:102F0600831603132808303E0A168A15DA220A1693
:102F16008A1120300A168A15DA220A168A11023018
:102F2600831203133806390403199A2F9B2FA22FF5
:102F3600043038063904031DA12FA22FA82F3A30DA
:102F46000A168A15DA220A168A1106308312031324
:102F5600380639040319B02FB12FB82F08303806B8
:102F66003904031DB72FB82FBE2F20300A168A1535
:102F7600DA220A168A118312031336080A168A15EC
:102F8600D5250A168A1183120313A90038082B3E89
:102F9600840029088313800038082B3E840000082B
:102FA6000A168A15DA220A168A11013083120313C9
:102FB600B8070318B90A0030B9073908803AFF0084
:102FC60080307F02031DE92F0A303802031CEC2FE4
:102FD600ED2F5C2F1230F4009030F5000A168A159A
:102FE6006C240A168A11013083160313A8070318E6
:102FF600A90A0030A90710300800FF1B0A2883130E
:103006007F1883170008840A0319FF0A08007F083F
:0E3016007F398A000408840A0319FF0A820029
:10354C008316031306083F388600080064008001C8
:10355C00840A0406031900340406AD2A0A168A15D7
:10356C00AB230A168A1583160313111408000A16C6
:10357C008A15AB230A168A15831603131115080036
:10358C000A168A15AB230A168A158316031391148F
:10359C000800F8000A168A15AB230A168A15780853
:1035AC008312031393000800F300730883120313B0
:1035BC0099000C1EE22AE32ADF2A0C12080083165B
:1035CC0003138801091189100A168A1152230A164D
:1035DC008A15080074349134773491346234913400
:1035EC0065349134683491346B3491348312031301
:1035FC0012149214FA308316031392008C14831253
:10360C00031312110800831203131F151F190F2B1C
:10361C00102B0C2B1E08F600831603131E08F50046
:10362C007608F4007508F30008007E088A007F080D
:10363C0082000A168A151B230A168A158000840A32
:10364C0004087D0603190034FF0A0319FE0A1F2B18
:10365C00593491343D349134013491345034913493
:10366C00E73490344F344E34003401340034FF349A
:10367C00FF34FF34FF3483160313871507163830D5
:10368C0083120313940083160313910130309300BB
:10369C0014179417831203138C118D1108008312C5
:1036AC000313A500F30124080A168A15E0230A1651
:1036BC008A15F301F30A8312031325080A168A15D7
:1036CC00E0230A168A150800831603139F1783122A
:1036DC0003131F139F17831603131F138312031354
:1036EC001F119E01831603139E01831203131F14D3
:1036FC000800F600F501761C842B852B892B7308AA
:10370C00F4007408F5070310F30D0310F60C76089B
:10371C00031D912B922B812B7508080000300A1683
:10372C008A150B260A168A1583120313A900290879
:10373C00AA002A087F39A9002908A00000300A161F
:10374C008A1523240A168A150800031083160313FE
:10375C0014190314003003180130F300F4011F3066
:10376C001105F50073087504F6007408F700760867
:10377C007704031DC22BC32BAB2B0800F4000430C1
:10378C00F3007308F500FA30F3007308F60001300B
:10379C00F602031DD22BD32BCD2B0130F502031DCA
:1037AC00D82BD92BC92B0130F402031DDE2BDF2BB8
:1037BC00C52B0800F6007318E42BE82B83120313B7
:1037CC000915EB2B83120313091176088800891451
:1037DC00A630F400F40BF02B0000831203138910B5
:1037EC001B30F5009E30F400F40BFA2BF50BFA2B82
:1037FC000000080083120313A4001A2C2208840072
:10380C000008A3002308A00024080A168A15E22445
:10381C000A168A15013083120313A3002308A2078A
:10382C000130A3002308A407220884008313000896
:10383C00031D212C222C042C080083120313A1003D
:10384C000A168A15B4220A168A15D0300A168A1559
:10385C00CF220A168A158312031321080A168A1519
:10386C00CF220A168A158312031320080A168A150A
:10387C00CF220A168A150A168A15BD220A168A152F
:10388C000800F701F801731C4C2C4D2C532C7508B7
:10389C00F7070318F80A7608F80701300310F50D3E
:1038AC00F60DFF3E031D542C01300310F40CF30CE9
:1038BC00FF3E031D5B2C73087404031D662C672CE0
:1038CC00492C7808F4007708F3000800812C75085F
:1038DC00FF00740884000A168A1500200A168A153F
:1038EC000A168A15DA220A168A150130F40703180B
:1038FC00F50A0030F507750883120313FF007408EE
:10390C0084000A168A1500200A168A15003A031D2F
:10391C00902C912C6D2C0800F7007708F500750899
:10392C00F600A22C0130F5007508F6070130F307FC
:10393C000318F40A0030F407740883120313FF0011
:10394C00730884000A168A1500200A168A15F500D9
:10395C00760884007508831780000008031DB72CB7
:10396C00B82C982C080083120313A400A001A10109
:10397C007308F500F6017508A2007608A300241C54
:10398C00C82CC92CCF2C2208A0070318A10A230885
:10399C00A10701300310A20DA30DFF3E031DD02C77
:1039AC000310A40C2408031DDC2CDD2CC52C2108D1
:1039BC00F4002008F300080083120313A1000A1678
:1039CC008A15B4220A168A15A0300A168A15CF2237
:1039DC000A168A158312031321080A168A15CF2298
:1039EC000A168A158312031320080A168A15CF2289
:1039FC000A168A150A168A15BD220A168A1503306C
:103A0C000A168A15C4230A168A1508000A168A157E
:103A1C00E5220A168A150A168A15A6220A168A158E
:103A2C000A168A1541230A168A150A168A15942332
:103A3C000A168A150A168A156A230A168A150A1690
:103A4C008A15FC220A168A15003083120313AB0068
:103A5C000030AA002530A9008030A8000A168A156B
:103A6C003C250A168A150B178B17080083120313B3
:103A7C00981718162808AC002908AD002A08AE00C3
:103A8C002B08AF0004300310AC0DAD0DAE0DAF0D17
:103A9C00FF3E031D492D2F08A3002E08A2002D0860
:103AAC00A1002C08A0000130A7003130A6002D3059
:103ABC00A5000030A4000A168A1181220A168A1564
:103ACC00831203132008FF3E83160313990008008A
:103ADC00F3018312031322080A168A15E0230A162F
:103AEC008A15902DF301F30A2108FF0020088400A9
:103AFC000A168A1500200A168A150A168A15E0235A
:103B0C000A168A15013083120313A0070318A10AA1
:103B1C000030A107831203132108FF002008840042
:103B2C000A168A1500200A168A15003A031D9F2DC5
:103B3C00A02D782D080083120313A4000A168A15F1
:103B4C00AB230A168A158316031391150A168A15C8
:103B5C00AB230A168A15831203131308A20022083A
:103B6C00A5000A168A15AB230A168A1583120313AD
:103B7C0024080319C22DC32DC72D831603139112CC
:103B8C00CA2D8316031391161116831203132508DD
:103B9C00A200A3012208A0002308A10008008312A0
:103BAC000313A7000A168A15B4220A168A15A03028
:103BBC000A168A15CF220A168A15831203132708B0
:103BCC000A168A15CF220A168A150A168A15C622D3
:103BDC000A168A15A1300A168A15CF220A168A15DA
:103BEC0000300A168A15A1250A168A1583120313AA
:103BFC002008A6002608A8000A168A15BD220A1657
:103C0C008A15831203132808080083120313A700D4
:103C1C000A168A15B4220A168A15D0300A168A1585
:103C2C00CF220A168A158312031327080A168A153F
:103C3C00CF220A168A150A168A15C6220A168A1562
:103C4C00D1300A168A15CF220A168A1500300A16A8
:103C5C008A15A1250A168A15831203132008A600BB
:103C6C002608A8000A168A15BD220A168A15831280
:103C7C00031328080800F8006E2E780884008313BC
:103C8C00000803194A2E4B2E572E73088400000887
:103C9C00F60078088400000876060319562E572E75
:103CAC00662E730884000008F6007808840000086B
:103CBC00F70076087702F300F401031CF4037E2E60
:103CCC000130F6007608F8070130F6007608F307A5
:103CDC000130F4020030031CF503F502740A031DD5
:103CEC007B2E750A031D7B2E7C2E432EF301F401D3
:103CFC000800F80004307806031D852E862EBC2E95
:103D0C00333083120313A0009130A1008230F700EE
:103D1C007708A2000A168A156E250A168A1528300D
:103D2C0083120313A0009130A100C230F700770872
:103D3C00A2000A168A156E250A168A1503308312FC
:103D4C000313DE000030DF005E085F04031DAF2E9E
:103D5C00B02EAA2EFF3083160313EC00FF30ED00BB
:103D6C00FF30EA00FF30EB001130BD2E223008008E
:103D7C0083120313A101A201730874040319C72E43
:103D8C00C82EFF2EA001A00AD62E01300310F30D71
:103D9C00F40DFF3E031DCC2E0130F7007708A00771
:103DAC00F41FD92EDA2ECB2E01300310A10DA20D4B
:103DBC00FF3E031DDB2E74087602031DE72E7308ED
:103DCC007502031CEA2EEB2EF22E7308F502740812
:103DDC00031CF603F602211401300310F40CF30C4F
:103DEC00FF3E031DF32E0130A002031DFE2EFF2EFD
:103DFC00DA2E2208F4002108F300080001308316A3
:103E0C000313EC070318ED0A0030ED070A306C06BB
:103E1C006D04031D122F132F172FEC01ED01B501AB
:103E2C00B50A0A3083120313A5002508F300831684
:103E3C0003136C080A168A157F230A168A15053E89
:103E4C0083120313A6002608A700B630A500250888
:103E5C00A20027080A168A1500240A168A1583164A
:103E6C0003136B08803AFF0080307F02031D402F44
:103E7C0009306A020318432F442F4C2F013083164C
:103E8C000313EA070318EB0A0030EB0708008C1C3D
:103E9C00502F512F9D2F013083160313A2070318A7
:103EAC00A30A0030A307E3302206043003192306CB
:103EBC00031D612F622F9A2FA201A30183120313FA
:103ECC005F08803AFF0080307F02031D6F2F0130A6
:103EDC005E02031C722F732F7B2FFF308312031390
:103EEC00DE070318DF0AFF30DF07831603132F08E2
:103EFC00803AFF0080307F02031D862F01302E0296
:103F0C00031C892F8A2F9A2F831203135E085F04D8
:103F1C00031D912F922F9A2FFF3083160313AE0798
:103F2C000318AF0AFF30AF07831203138C1072080B
:103F3C00FF0071088A00700E8300FE0E7E0E0900D1
:103F4C000A168A111C250A168A15C130F300003096
:103F5C00F4000630F5000030F600B6300A168A116F
:103F6C007B210A168A15831203132B08F3002C08E5
:103F7C00F4000230F5000030F600BC300A168A114D
:103F8C007B210A168A150A30F3000030F4008312E4
:103F9C0003132E08F6002D08F5000A168A15BE2606
:103FAC000A168A157308303E83120313AF002F08CC
:103FBC0083160313BE000A30F3000030F4008312A2
:103FCC0003132E08F6002D08F5000A128A1502209C
:103FDC000A168A157308303E83120313AF002F089C
:103FEC0083160313BF00C0010A168A1504270A168C
:043FFC008A1508001A
:02400E00FB3F76
:00000001FF
